:020000040800F2
:1000000090440020296E00088D6E00088F6E000855
:10001000916E0008936E0008956E000800000000C5
:100020000000000000000000000000007122000835
:10003000976E0008000000001F2200081921000828
:100040003D6F0008416F0008456F0008496F0008C8
:100050004D6F0008516F0008556F0008596F000878
:100060005D6F000899600008616F0008656F000807
:10007000696F00086D6F0008716F0008756F0008E8
:10008000796F00087D6F0008816F0008856F000898
:10009000896F00088D6F0008916F0008956F000848
:1000A000996F00089D6F0008A16F0008A56F0008F8
:1000B000A96F0008AD6F0008B16F0008B56F0008A8
:1000C000B96F0008BD6F0008C16F0008C56F000858
:1000D000C96F0008CD6F0008D16F0008D56F000808
:1000E000D96F0008DD6F0008E16F0008E56F0008B8
:1000F000E96F0008ED6F0008F16F0008F56F000868
:10010000F96F0008FD6F0008017000080570000815
:10011000097000080D7000081170000815700008C3
:10012000197000081D700008217000082570000873
:1001300000F5E0700268914203D343689A18914237
:1001400002D380680028F5D17047DFF824070168E2
:1001500091B9DFF820274FF4803181604FF480514E
:1001600041604FF0FF31C160016104214161C2F87B
:10017000BC11DFF8041701600120704701F108038A
:1001800013F0070305D001F10803C3F1080303F0DE
:1001900007035918D21A8161C26042F001034B6013
:1001A000511828234B60DFF8C8160969C1617047F0
:1001B0002DE9F84F044601F1080010F0070005D0C2
:1001C00001F10800C0F1080000F0070000EB010B8E
:1001D00002F1080010F0070005D002F10800C0F19C
:1001E000080000F007008618A6EB0B00A0EB030840
:1001F00003EB0B0743F00300CBF80400B74228BF22
:1002000001F0F6F93079C00758BF01F0F1F9B8F103
:10021000100F38BF01F0ECF9A069864207D1E06801
:100220004044E060A76140F0010078605AE16069F5
:10023000864208D1A0684044A060676140F0010197
:100240007960C0514EE1706800F00301012940F06F
:10025000AD80C0084FEAC00920283BD2D6F808A0DC
:10026000F5680090AE4208BF01F0C2F9564508BFDC
:1002700001F0BEF970680099C008C000B0EBC10F72
:1002800018BF01F0B5F9009804EBC00000F1280197
:100290008A4508D021698A45C0F08480DAF80C10BC
:1002A000B14240F07F80554506D1009A2068012177
:1002B00091408843206077E02830854205D020694E
:1002C00085426FD3A868B0426CD1CAF80C50C5F80B
:1002D00008A069E0F568D6F818A0B5420CD0B0685F
:1002E0002169884223D3C168B14204BFA968B142E1
:1002F0001DD1C560A8601CE006F11400056835B981
:1003000006F110000568A5B101E00846056805F191
:1003100014010A68002A02BF05F110010A68002AC8
:10032000F3D12169884202D30021016001E001F08C
:100330005FF9BAF1000F37D0F06904EB800000F5E7
:10034000987001688E4209D10560280014D1F269C5
:100350006068012191408843606025E02069824502
:1003600008D3DAF81000B04214BFCAF81450CAF823
:10037000105001E001F03CF9B5B12069854211D37C
:10038000C5F818A0316929B1814226BF29618D6164
:1003900001F02EF9706938B12169884202D3686191
:1003A000856101E001F024F94E44C84470684008BA
:1003B000400070604FEAD80548F00100786048F8C6
:1003C0000780202D21D204EBC50000F12806B1469C
:1003D000B8F1100F38BF01F00BF9206820FA05F1D1
:1003E000C90704D40121A9400843206006E0B06891
:1003F000216988422CBF814601F0FAF8B760C9F83C
:100400000C70C7F80890FE606CE05FEA182008BF27
:10041000002123D0B0F5803F28BF1F211ED2A0F5B8
:100420008071090C01F008018840A0F58052120C7F
:1004300002F004029040A0F580431B0CC1F10E01B4
:1004400003F00203891AC91A984001EBD030C11D8C
:1004500028FA01F101F0010101EB4001F9610022EC
:100460007A613A6104EB8100626822FA01F300F5D7
:100470009870DB0706D4012303FA01F11143616090
:1004800007601CE01F2900680EBF00214908C1F168
:10049000190108FA01F100E010464268D208D200C2
:1004A000424510D0CA0F00EB820202F1100349004E
:1004B0001A68002AF0D121698B4211D31F60B861FC
:1004C000FF60BF600EE022698168904228BF9142C0
:1004D00006D3CF608760B960F8600020B86101E0A2
:1004E00001F086F80BF10800BDE8F28F2DE9F04F1E
:1004F0000546DFF87C03006883B0884608B9FFF73B
:1005000024FEDFF86C03806800EB08012F31401EE9
:1005100021EA0000804580F0A881D5F8B81141B1EA
:10052000D5F8B0218018824280F09F818142C0F0CE
:100530009C8101F077F800281EBF0446076814F17B
:10054000010F00F09281D5F8B0013818C5F8B0015C
:10055000D5F8B411814238BF0146C5F8B411A86975
:1005600088BB286908B1844200D22C61C5F8C0411B
:10057000C5F8C4710020C5F8CC0105F12801BC48BC
:10058000006868624FF0FF3028620020C96089600F
:1005900001F10802801CD260103192602028F5D34E
:1005A000B448854203D1A7F12802214625E055F839
:1005B000040CC00805EBC000A0F108013819401A6E
:1005C000A0F1280219E005F5E071084600E0806816
:1005D000B8B142680368D2189442F8D1027B12077E
:1005E0000FD4AA699A420CD3466833449A4208D27F
:1005F000B9194160E868A9693A182846FFF7BEFDB5
:100600001EE12869844238BF2C610846391900E090
:10061000806880B102688A42FAD1017B09070AD456
:10062000046043464168791841602846214603B07A
:10063000BDE8F04FBCE5AE6931462846FFF778FDCE
:1006400041680068081801902F3800F1080111F086
:10065000070105D000F10801C1F1080101F007010F
:10066000081806F11001884234BF009600900098E7
:1006700000F1080900F1180A04F108014FF0000B1D
:10068000A7F1280011F0070105D004F10801C1F11C
:10069000080101F007010A19401AAA61E86040F058
:1006A0000101516080182821416071480069E861AA
:1006B00019F0070018BF00F09BFF00991B2048604D
:1006C00005F5E070B0E80E10A9E80E10C5F8C041BD
:1006D000C5F8C471A9F11001C5F8CCB1C5F8C811AD
:1006E000019800E08A460722CAF804200AF10401B2
:1006F0000A1D0BF1010B8242F4D3BBF1020FB8BF0C
:1007000000F076FF0098B04200F09A80801B8119BB
:100710004FEAD0094A68520852004A6040F001018D
:1007200071608051B9F1200F1FD205EBC90101F1B1
:1007300028042746102838BF00F05AFF286820FAFE
:1007400009F1C90705D4012101FA09F1084328601C
:1007500006E0A068296988422CBF074600F048FFE0
:10076000A660FE60B760F4606AE0010A08BF00227C
:1007700023D0B1F5803F28BF1F221ED2A1F5807281
:10078000120C02F008029140A1F580531B0C03F0FB
:1007900004039940A1F58044240CC2F10E0204F038
:1007A0000204D21A121BA14002EBD131CA1D20FA59
:1007B00002F202F0010202EB4102F26100237361D6
:1007C000336105EB82016B6823FA02F401F598713D
:1007D000E40705D401209040184368600E601CE0D7
:1007E0001F2A09680EBF00225208C2F1190200FA3E
:1007F00002F200E019464B68DB08DB00834210D0B0
:10080000D30F01EB830303F1100452002368002B84
:10081000F0D12869844211D32660B161F660B660D8
:100820000EE02A698868914228BF904206D3C660CC
:100830008E60B060F1600020B06101E000F0D8FE91
:10084000E868804511D2A0EB0800E86040F00100A4
:10085000A96908EB0102AA61506048F003004860F2
:1008600003B001F10800BDE8F08F002000F030BCBB
:10087000BC3E0020303C00206859883C2DE9F84FF0
:10088000044688460026C8F1000B5FEA182008BF1E
:10089000002123D0B0F5803F28BF1F211ED2A0F534
:1008A0008071090C01F008018840A0F58052120CFB
:1008B00002F004029040A0F580431B0CC1F10E0130
:1008C00003F00203891AC91A984001EBD030C11D08
:1008D00028FA01F101F0010101EB400104EB810074
:1008E000D0F8300130B31F290EBF00224A08C2F1F0
:1008F000190208FA02F2002300E052004568ED08F0
:10090000ED00A5EB08055D4503D206465FEA050B41
:100910000CD045694FEAD27E00EB8E00002D0069B5
:100920001CBF85422B460028E7D1184600283AD143
:10093000002E3AD1012088404000414208436168BE
:10094000084000F05F8141420840411E080B00F062
:10095000100021FA00F2510901F00801CA40930881
:1009600003F00403DA40550805F002050818EA40D0
:100970001818C2F3400E2844704422FA0EF10818E9
:1009800004EB8000D0F830010DE008464168C9084A
:10099000C900A1EB080159453CBF8B4606460169D9
:1009A0000029F2D140690028F0D1002E00F02A8100
:1009B000A068A0EB0800834580F02481206986426E
:1009C000C0F01E817068C00808EB0B09C00008EB7E
:1009D0000605484518BF00F00BFEAE4280F01081BE
:1009E000F768D6F818A0B7420CD0B06821698842E1
:1009F00023D3C168B14204BFB968B1421DD1C760F9
:100A0000B8601CE006F11400076837B906F1100061
:100A10000768A7B101E00846076807F114010A68F2
:100A2000002A02BF07F110010A68002AF3D12169E8
:100A3000884202D30021016001E000F0D9FDBAF143
:100A4000000F38D0F06904EB800000F59870016861
:100A50008E4209D10760380014D1F2696068012123
:100A600091408843606026E02069824508D3DAF827
:100A70001000B04214BFCAF81470CAF8107001E038
:100A800000F0B6FDBFB12069874212D3C7F818A0A5
:100A9000306930B12169884226BF3861876100F032
:100AA000A7FD706938B12169884202D378618761F6
:100AB00001E000F09DFDBBF1100F09D249F00300E9
:100AC000706009EB0600416841F00101416096E069
:100AD00048F0030070604BF0010068604BF805B00F
:100AE0004FEADB0020281DD204EBC00101F12807EA
:100AF000216821FA00F2BB46D20705D4012202FA8E
:100B000000F00843206006E0B868216988422CBFE5
:100B1000834600F06DFDBD60CBF80C50C5F808B001
:100B2000EF606CE05FEA1B2008BF002123D0B0F526
:100B3000803F28BF1F211ED2A0F58071090C01F053
:100B400008018840A0F58052120C02F00402904087
:100B5000A0F580431B0CC1F10E0103F00203891ABA
:100B6000C91A984001EBD030C11D2BFA01F101F0F8
:100B7000010101EB4001E96100226A612A6104EB95
:100B80008100626822FA01F300F59870DB0706D451
:100B9000012303FA01F11143616005601CE01F2984
:100BA00000680EBF00214908C1F119010BFA01F1DB
:100BB00000E010464268D208D2005A4510D0CA0F51
:100BC00000EB820202F1100349001A68002AF0D1FA
:100BD00021698B4211D31D60A861ED60AD600EE00C
:100BE00022698168904228BF914206D3CD6085601A
:100BF000A960E8600020A86101E000F0F9FC07E1CD
:100C000000F0F6FC01E12DE9F84F044688466068E3
:100C100041420840411E080B00F01000C1404A0943
:100C200002F00802D1408B0803F00403D9404D08BC
:100C300005F002051018E9401818C1F340062844D1
:100C40003018F140081804EB8000D0F830014168FA
:100C5000C908C9000646A1EB080A09E00846416830
:100C6000C908C900A1EB080151453CBF8A460646A8
:100C700001690029F2D140690028F0D1206986423B
:100C8000C0F0C1807068C00808EB0A09C00008EB1A
:100C9000060B484518BF00F0ABFC5E4580F0B38002
:100CA000F768B569B7420CD0B0682169884223D390
:100CB000C168B14204BFB968B1421DD1C760B86014
:100CC0001CE006F11400076837B906F11000076848
:100CD000A7B101E00846076807F114010A68002A75
:100CE00002BF07F110010A68002AF3D12169884286
:100CF00002D30021016001E000F07AFC002D34D025
:100D0000F06904EB800000F5987001688E4209D10B
:100D10000760380011D1F269606801219140884371
:100D2000606022E02069854205D32869B04214BF83
:100D30006F612F6101E000F05BFCB7B12069874271
:100D400011D3BD61306930B12169884226BF386155
:100D5000876100F04DFC706938B12169884202D387
:100D60007861876101E000F043FCBAF1100F09D20D
:100D700049F00300706009EB0600416841F0010191
:100D800041603FE048F0030070604AF00100CBF89A
:100D900004004AF80BA0D4F808804FEAD805202DAB
:100DA00028BF00F025FCB8F1000F27D0D4F814902C
:100DB000009504EBC50000F128052F46B8F1100F8F
:100DC00038BF00F015FC2068009920FA01F1C9072E
:100DD00005D4009A012191400843206006E0A868EC
:100DE000216988422CBF074600F002FCC5F8089034
:100DF000C7F80C90C9F80870C9F80C50C4F808A0DE
:100E0000C4F814B004E000F0F3FB0020BDE8F28F5A
:100E100006F10800BDE8F28F2DE9F04F83B00546DA
:100E2000C046C046DFF8C047F52D80F006810B2D87
:100E300031BF102705F10B00C008C7002068FE086D
:100E4000F04010F0030F42D0C04300F001008619BB
:100E500004EBC60000F12808F700D8F808506868CD
:100E6000C008C000B84218BF00F0C2FBD5F8089017
:100E7000454508BF00F0BCFB4D4508BF00F0B8FB7E
:100E80006868C008C000B84218BF00F0B1FBC84590
:100E900005D120680121B140884320600DE0206920
:100EA000814508D3D9F80C00A84204D1C8F80890AD
:100EB000C9F80C8001E000F09BFB47F0030068607C
:100EC00078190835416841F001014160FDE0A168F1
:100ED000B94280F0C480002800F0A680012505FA00
:100EE00006F149004A42B0401143084041420840DF
:100EF000411E080B00F01000C1404A0902F0080230
:100F0000D1408B0803F00403D9404E0806F00206D6
:100F10001018F1401818C1F340083018404421FA65
:100F200008F101EB000804EBC80000F128094FEAC2
:100F3000C80AD9F808607068C008C000504518BFDA
:100F400000F056FBD6F808B04E4508BF00F050FB45
:100F50005E4508BF00F04CFB7068C008C0005045FB
:100F600018BF00F045FBD94505D1206805FA08F106
:100F7000884320600DE02069834508D3DBF80C002E
:100F8000B04204D1C9F808B0CBF80C9001E000F0F1
:100F90002FFB47F00300AAEB07087060BF1948F069
:100FA0000100786048F80780D4F808904FEAD90A21
:100FB000BAF1200F28BF00F01BFBB9F1000F2DD0B4
:100FC00060690090CDF804A004EBCA0000F1280A83
:100FD000D346B9F1100F38BF00F00AFB2068019921
:100FE00020FA01F1C90705D4019905FA01F1084376
:100FF000206007E0DAF80800216988422CBF8346A8
:1010000000F0F6FA0098CAF808000098CBF80C0037
:101010000098C0F808B00098C0F80CA0C4F8088088
:10102000676106F1080550E06068C0B339462046A4
:10103000FFF7E9FD050012D047E015F1400F28BF8A
:101040004FF0FF370BD205F10B00C008C7006068F6
:1010500028B139462046FFF711FC050035D1A168BB
:10106000B9421CD3CA1B6069102A0AD339186161BE
:10107000A26042F001034B60525047F0030141600F
:101080000AE00022A260626141F003024260091896
:101090004A6842F001024A6000F1080515E0E06884
:1010A00087420DD2C01BA169E0607A18A26140F0AE
:1010B0000100506001F1080547F00300486004E0BA
:1010C00039462046FFF712FA0546C046C046284674
:1010D00003B0BDE8F08F00B970472DE9F047A0F1EB
:1010E0000804C046C046DFF8005528698442C0F0B5
:1010F0007582616801F00302012A00F06F82CA085C
:101100004FEAC20808EB0409CA0737D4226811F075
:10111000030F00F0658251420C1990448442C0F0E4
:101120005D8269698C4200F0D880D608202E70D28A
:10113000D4F80CA0A768544508BF00F059FABC4287
:1011400008BF00F055FA6068C008C000B0EBC60FD9
:1011500018BF00F04DFA05EBC60000F128018F42E0
:1011600005D029698F4251D3F968A1424ED1BA45C1
:101170003DD128680121B140884328604C4580F06A
:101180002D82D9F80400C10740F12882810700F1BF
:101190007A81A969894540F0B580E868AC6140442E
:1011A000E86040F00101616069698C4202D1002170
:1011B0006961A960E969814280F01282DFF82C043C
:1011C000006808B9FEF7C1FFA969002900F008828C
:1011D000E868292824BF2846FEF7AAFFE869E968DD
:1011E000884280F0FD814FF0FF30E861F8E128305F
:1011F000824506D02869824508D3DAF80800A04263
:1012000004D1C7F80CA0CAF80870B7E700F0F0F9ED
:10121000B4E7E768A669A7420BD0A168814222D350
:10122000C868A04204BFB868A0421CD1CF60B960B2
:101230001BE004F114010F6837B904F110010F68C5
:101240009FB101E011460F6807F114021368002BEB
:1012500002BF07F110021368002BF3D1814202D3C1
:101260000020086001E000F0C3F9002E86D0E0699C
:1012700005EB800000F5987001688C4209D1076089
:10128000380011D1E26968680121914088436860A3
:1012900074E72869864205D33069A04214BF77619C
:1012A000376101E000F0A4F9002F3FF467AF28692F
:1012B0008742ABD3BE61216929B1814226BF396122
:1012C0008F6100F095F9606900283FF457AF2969F4
:1012D00088429BD37861876150E799F8040000F059
:1012E000030003287FF44AAFC5F80880D9F804004A
:1012F00040084000C9F8040048F00100606048F868
:1013000004806DE16969894508D1A8686C61404431
:10131000A86040F001016160005161E1C008C000B7
:101320004FEAD00A8044BAF1200F36D2D9F80C70B7
:10133000D9F80860B94508BF00F05AF9B14508BFAF
:1013400000F056F9D9F80400C008C000B0EBCA0F8D
:1013500018BF00F04DF905EBCA0000F128018E42DC
:1013600006D029698E42C0F08180F16849457DD15F
:10137000B74206D12868012101FA0AF188432860A2
:1013800076E02830874205D0286987426ED3B86856
:1013900048456BD1F760BE606AE0D9F80C70D9F8A7
:1013A00018604F450DD0D9F808002969884223D329
:1013B000C168494504BFB96849451DD1C760B860D7
:1013C0001CE009F11400076837B909F1100007683B
:1013D000A7B101E00846076807F114010A68002A6E
:1013E00002BF07F110010A68002AF3D12969884277
:1013F00002D30021016001E000F0FAF8002E37D09E
:10140000D9F81C0005EB800000F59870016889454B
:101410000AD10760380012D1D9F81C206868012170
:1014200091408843686023E02869864205D330698B
:10143000484514BF7761376101E000F0D9F8BFB1CA
:101440002869874212D3BE61D9F8101029B18142B0
:1014500026BF39618F6100F0CBF8D9F8140038B19C
:101460002969884202D37861876101E000F0C0F801
:1014700048F00100606048F80480686984420BD13C
:10148000C5F80880ACE040084000C9F8040048F006
:101490000100606048F804804FEAD807202F22D26C
:1014A00005EBC70000F128094E46B8F1100F38BF10
:1014B00000F09EF8286820FA07F1C90704D401213A
:1014C000B9400843286007E0D9F808002969884234
:1014D0002CBF064600F08CF8C9F80840F460A660FE
:1014E000C4F80C907CE05FEA182008BF002123D0EC
:1014F000B0F5803F28BF1F211ED2A0F58071090CD6
:1015000001F008018840A0F58052120C02F004029C
:101510009040A0F580431B0CC1F10E0103F00203C3
:10152000891AC91A984001EBD030C11D28FA01F17F
:1015300001F0010101EB4001E161002262612261E1
:1015400005EB81006A6822FA01F300F59870DB0769
:1015500006D4012303FA01F11143696004601CE021
:101560001F2900680EBF00214908C1F1190108FABE
:1015700001F100E010464268D208D200424510D086
:10158000CA0F00EB820202F1100349001A68002A18
:10159000F0D129698B4211D31C60A061E460A46082
:1015A0000EE02A698168904228BF914206D3CC6040
:1015B0008460A160E0600020A06101E000F018F804
:1015C000286A401E28620BD1D5F8C80100E0806867
:1015D0000028FCD14FF0FF30286201E000F008F84D
:1015E000C046C046BDE8F087303C0020BC3E00202D
:1015F000012000F02DB810B450F8041B81B102682E
:101600001218001D50F8043BDC0744BFA9F1010487
:10161000E31852F8044B43F8044B091FF9D1EBE7E8
:1016200010BC70470749086808B100207047064899
:10163000C008C00008600549C908C900091A01604E
:10164000704700BF7C400020974400209048002055
:1016500080B5C046C046024A11001820ABBEFBE769
:10166000260002002DE9F04782B006000F009046E8
:1016700099460C99404680B200F05EFC05000A9C39
:10168000002D71D01FFA88F8286B10EB8800B0F19C
:10169000040A5FEADA0A5FEACA0A1FFA88F8CDF894
:1016A00000800D9B22003900280000F0CBFB4A4649
:1016B0003100504600F0F2FC28600B98002800D062
:1016C000056000F013FDDFF85C080068401CDFF8DF
:1016D00054180860DFF8C008006800280AD1DFF855
:1016E000B8080560DFF83C080068012810D100F058
:1016F000C6FB0DE0DFF830080068002808D1DFF8ED
:1017000098080068C06A844202D3DFF88C0805603C
:10171000DFF818080068E96A884203D2E86ADFF84F
:101720000C180860DFF8080800686864DFF8000833
:101730000068401CDFF8F8170860DFF8F807006859
:10174000E96A884203D2E86ADFF8E8170860291DD1
:10175000E86A1422DFF8243802FB003000F010FDA4
:10176000012500F0CCFC01E05FF0FF35012D0CD12C
:10177000DFF8B4070068002807D0DFF81C0800680D
:10178000C06AA04201D200F0ACFC2800BDE8F68798
:1017900038B5040000F0AAFCDFF8FC0700688442BA
:1017A00000D10024002C03D1DFF8EC07056800E02D
:1017B0002500281D00F00DFDA86A002803D015F1B2
:1017C000180000F006FD291DDFF8D00700F0D8FC56
:1017D000DFF8CC070068401CDFF8C4170860DFF8AA
:1017E00050070068401CDFF84817086000F087FCCD
:1017F000DFF834070068002803D0002C01D100F086
:1018000070FC31BD70B504000E00002500F019F920
:1018100020683618DFF8380800682168884209D245
:10182000206886420FD2DFF828080068B0420AD24A
:10183000012508E02068864204D3DFF81408006818
:10184000B04200D201252660002D21D0DFF84807E4
:101850000068001D00F0BDFCDFF83C070068466032
:10186000DFF8EC070068864209D2DFF82C07006831
:10187000011DDFF8E007006800F090FC08E0DFF8E9
:1018800018070068011DDFF8D007006800F086FC2B
:1018900000F0DFF8002801D100F023FC70BD10B586
:1018A00004000020002C29D000F0CBF8DFF8A007BE
:1018B00000682418DFF8E0060068001D00F089FCCD
:1018C000DFF8D40600684460DFF8840700688442CB
:1018D00009D2DFF8C4060068011DDFF87807006848
:1018E00000F05CFC08E0DFF8B0060068011DDFF8DE
:1018F0006807006800F052FC00F0ABF8002801D146
:1019000000F0EFFB10BD38B5040000F0EFFBDFF88E
:1019100088060068844200D10024002C03D1DFF83F
:101920007806056800E02500281D00F052FCA86A32
:10193000002803D015F1180000F04BFC291DDFF83A
:10194000200700F01DFC00F0DAFB002C13D1DFF8BB
:10195000D8050068002802D000F0C3FB0BE0DFF8D8
:10196000C4050068012804D10020DFF82C160860A7
:1019700001E000F046F931BD00214269DFF8E036B0
:101980009A4208D1826ADFF8DC369A4203D0806A34
:10199000002800D101210800704710B50400002C78
:1019A0002CD0DFF8F4050068844227D000F09EFBBD
:1019B0002000FFF7E1FF01281ED1201D00F009FCE7
:1019C000DFF870050068E16A884203D2E06ADFF858
:1019D00064150860211DE06A1422DFF8A03502FBBF
:1019E000003000F0CDFBE06ADFF8AC150968C96A89
:1019F000884201D300F075FB00F081FB10BD00B5FB
:101A000085B000200390002002900020019000206B
:101A1000009000238022DFF854160FF21540FFF7E4
:101A200021FE01280BD100F015FC0120DFF8F8148D
:101A300008600020DFF81816086000F03CFB05B0D5
:101A400000BDDFF824060068401CDFF81C160860A3
:101A5000704770B5002400F049FBDFF80C06006801
:101A6000401EDFF804160860DFF8FC050068002857
:101A700058D1DFF8B0040068002853D0002521E0D9
:101A800016F1180000F0A5FB301D00F0A2FBDFF8F6
:101A9000A4040068F16A884203D2F06ADFF8941463
:101AA0000860311DF06A1422DFF8D03402FB0030E8
:101AB00000F066FBF06ADFF8E0140968C96A884242
:101AC00000D30125DFF89C050068002804D0DFF86A
:101AD0009405C068C66800E00026002ED0D1DFF86B
:101AE00090050068002809D10EE000F029F8DFF821
:101AF00080050068401EDFF878150860DFF8700583
:101B000000680028F1D10125012D04D0DFF864051B
:101B10000068012806D101240020DFF8581508606C
:101B200000F0DFFA00F0EBFA200070BD10B500F015
:101B3000DDFADFF81C05046800F0E1FA200010BDB2
:101B400010B5DFF824050068002852D1DFF8000541
:101B50000068401CDFF8F8140860DFF8F40400683F
:101B6000002812D1DFF8F0040068DFF8E8140968F3
:101B7000DFF8E4241160DFF8DC140860DFF8040506
:101B80000068401CDFF8FC1408601CE0201D00F019
:101B900020FBA06A002803D014F1180000F019FB04
:101BA000DFF890030068E16A884203D2E06ADFF858
:101BB00084130860211DE06A1422DFF8C03302FBA1
:101BC000003000F0DDFADFF89004006800680028BB
:101BD00005D0DFF884040068C068C46800E0002411
:101BE000002C0DD0DFF86804006861688842CDD20F
:101BF00006E0DFF87C040068401CDFF8741408601D
:101C000010BDDFF864040068002809D00120DFF867
:101C10006414086064E0C7480068401EC549086055
:101C2000C44800681421DFF8542301FB0020006839
:101C30000028F0D0BF4800681421DFF8402301FBE2
:101C40000020416849684160416810F108029142F2
:101C500002D14168496841604068C068DFF83813C4
:101C60000860DFF81C040068002839D0DFF8180489
:101C70000068DFF824130968496C884230D0DFF827
:101C8000F80300680830DFF8F4130968884223D2AB
:101C9000DFF804030068406CDFF8EC130860DFF83D
:101CA000D8030068DFF8A81309680160DFF8C803EB
:101CB0000068001DDFF8C0130860DFF8CC0300687F
:101CC000DFF8B41309680860DFF8AC030068001D92
:101CD000DFF8A413086003E00020DFF8A413086015
:101CE000704710B50C00DFF8B0120968183100F029
:101CF00055FAA9480068001D00F06BFA14F1010FB5
:101D000007D1A5480068011DDFF8540300F038FA38
:101D10001CE0DFF83C03006820189F490968486010
:101D2000DFF82C130968884208D29B480068011D1F
:101D3000DFF82003006800F031FA07E096480068F9
:101D4000011DDFF81403006800F028FA10BD10B57B
:101D50000168002902D0C068C46800E0002414F1C2
:101D6000180000F036FADFF800030068002813D1ED
:101D7000201D00F02EFA6F480068E16A884202D206
:101D8000E06A6C490860211DE06A14227B4B02FB6B
:101D9000003000F0F5F905E014F11801DFF8C40295
:101DA00000F0EEF9E06A7C490968C96A884201D30B
:101DB000012000E0002010BDDFF8C81209680160B2
:101DC000A34909684160704738B504000D0000F070
:101DD0008DF9286810F1010F01D100241FE0A948F6
:101DE00000682168884206D0994800686168884286
:101DF00001D3012413E0964800686168401A2968FD
:101E000088420BD2286892490968401A616808180C
:101E100028602000FFF7D0FF002400E0012400F03C
:101E20006EF9200032BD0120924908607047000021
:101E300080B500F046F8894800680228F9D300F020
:101E400050F9F6E738B504001500102214F13400FB
:101E500000F026FA002084F84300052D00D3042565
:101E6000E562A564201D00F088F914F1180000F067
:101E700084F92461D5F10500A061646231BD10B51B
:101E8000002406E014203D4900FB041000F066F930
:101E9000641C052CF6D37D4800F060F97C4800F006
:101EA0005DF9704800F05AF93C4800F057F96C4869
:101EB00000F054F97548684908607548654908603C
:101EC00010BD10B53648006800282AD0FFF7B9FDCC
:101ED00032480068002801D1012400E00024E4B267
:101EE000FFF7B7FD002C1CD100F000F92B4800686B
:101EF000002803D02948C068C46800E00024201DE1
:101F000000F067F907480068401E06490860244849
:101F10000068401E2249086000F0F1F8200000F03F
:101F20002FF810BD44400020544000204C400020B9
:101F3000684000205040002070B504000D004C2087
:101F400000F0E4F90600002E16D0002D05D1A4B251
:101F5000A00000F0DBF90500FFE73563306B0028D7
:101F600004D1300000F039FA002605E0A4B2A20046
:101F7000A521306B00F05CFA300070BD083E0020F7
:101F800010B50400206B00F028FA200000F025FABC
:101F900010BD01480068704734400020103F002009
:101FA0004040002010B50400E06A3A490968C96A57
:101FB000884229D237480068C06AD0F10500A06184
:101FC0006069E16A1422254B02FB0131884217D176
:101FD000201D00F0FEF82F480068C06AE0622E481D
:101FE0000068E16A884202D2E06A2B490860211D3C
:101FF000E06A1422194B02FB003000F0C1F803E044
:1020000024480068C06AE06210BD10B50400002CCE
:102010001CD0E06AA16C884218D0201D00F0D9F8CD
:10202000A06CE062E06AD0F10500A0611A48006887
:10203000E16A884202D2E06A17490860211DE06A1D
:102040001422064B02FB003000F09AF810BD00008D
:10205000484000203C40002038400020083E00203E
:10206000243F0020FC3E0020584000200C6F000858
:102070005C400020604000206C4000207040002048
:10208000744000206440002028000020D43E00203E
:10209000E83E00203440002050400020001F5FF048
:1020A00080730360001F0160001F0021016014386D
:1020B00002602038704780B52248006850F47F00E5
:1020C000204908601F48006850F07F401D490860A3
:1020D00000F02FF800201C49086000F0D7F800201D
:1020E00002BD5FF0805019490860704780B500F06C
:1020F000B1F815480068401C1349086001BD80B55F
:1021000011480068401E104908600F480068002808
:1021100001D100F0A6F801BD10B55FF080500B4969
:102120000860002400F096F8FFF70AFD00F099F827
:1021300010BD074807490860072007490860704735
:102140000000000020ED00E02400002004ED00E08D
:102150003F19010014E000E010E000E010F1080178
:1021600041605FF0FF31816010F10801C16010F142
:102170000801016100210160704700210161704781
:10218000426853684B6043688B6053689960516044
:10219000416008610168491C0160704710B40B6818
:1021A00013F1010F01D1026907E010F1080200E00C
:1021B000526854682468A342FAD253684B604B6853
:1021C00099608A60516008610168491C016010BC17
:1021D0007047816842689160416882685160016916
:1021E0004A68824201D182684A600022026108681E
:1021F000401E0860704750F8041B61B150F8042B72
:10220000D30744BFA9F101039A18002342F8043B05
:10221000091FFAD1EFE7704780F308887047EFF3A2
:1022200009801D4B1A6820E9F00F106008B54FF0C7
:10223000BF0080F31188FFF7E4FC4FF0000080F34B
:102240001188BDE8084019680868B0E8F00F80F30D
:102250000988704701B44FF0BF0080F3118801BCBA
:10226000704701B44FF0000080F3118801BC704743
:10227000094B19680868B0E8F00F80F309884FF03F
:10228000000080F311884EF00D0E7047034800687F
:10229000006880F3088800DF3440002008ED00E08B
:1022A00001B58B0718D1121F21D351F8043BA3F1BC
:1022B000013C2CEA030C1CF0803C04BF40F8043BBA
:1022C000F1E79CFA8CFCBCFA8CF1C1F118018B404F
:1022D000CB4040F8043B13E0042A09D311F8013B3A
:1022E000521E00F8013B5BB18B07F7D1DBE7121DF3
:1022F0005AB111F8013B521E00F8013B03B1F8D16D
:1023000011001CBF002200F0A1F801BD38B5050086
:102310000024FFF796FB40480068002815D13F488D
:102320003F49086000203E4948604FF470503D49E5
:10233000486000203B49086038484FF470514160C4
:1023400038490160012034490860002D0AD0364820
:102350000088451915F0070F04D015F1080015F095
:102360000701451A002D34D0B5F5705F31D22C49E4
:102370002B48006801E0010000684268AA4202D2CE
:102380000268002AF7D1274A904222D0264A1288B2
:102390000B68D41802680A6023490988490042681A
:1023A000521B91420FD229184268521B4A60456065
:1023B0004B681B4A00E0126815686D689D42FAD3AD
:1023C00013680B601160194909684068081A1749B9
:1023D0000860FFF73EFB200032BD10B50400002C62
:1023E00018D01148008840420419FFF72AFB6168A1
:1023F0000B4800E00068026852688A42FAD301681C
:10240000216004600948006861680818074908608D
:10241000FFF71FFB10BD00002C4000203000002003
:10242000D03F0020D83F0020AA2400082000002030
:1024300010B5044610460A460146204600F002F850
:10244000204610BD62F30F2262F31F42401810F0C5
:10245000030308D0C91A1FD3DB0748BF00F8012DBA
:1024600028BF20F8022D130030B414461546103949
:1024700028BF20E93C00FAD8490728BF20E90C0012
:1024800048BF40F8042D890028BF20F8022D48BF1E
:1024900000F8012D30BC7047C91818BF00F8012D95
:1024A000CB0728BF00F8012D7047100038B5040095
:1024B0005020FEF7B1FC0500002D01D1002012E0F4
:1024C000280000F011F80020A8630020E863002035
:1024D0002864002068640020A8640020E8642000CC
:1024E00000F07BFA280032BD10B5040000206061C6
:1024F00000F0CEFBA0610020207700206077002054
:10250000206200F0C5FB6062002084F828000020F3
:1025100084F829000FF2E900E0620FF289102063CD
:102520000FF2DD10606310BD10B50400DFF81C066B
:102530008068002805D0DFF81406DFF810168968D7
:102540008847200000F004F8200000F02DF810BDAE
:1025500038B50400002000F07FFE0500ADB2002D6C
:1025600021D0607F00281ED1002300220021A06915
:1025700000F04FFC012816D1207F80B2ADB2A842F6
:1025800000D2257F2A0092B26169002001F0AAF9E9
:102590000500ADB2002D00D0657700230022002198
:1025A000A06900F0A0FB31BD10B5040094F829002B
:1025B000002823D0002300220021606A00F029FCBB
:1025C00001281BD194F8292092B2216A002001F041
:1025D000D0F8002809D5002000F0A6FF0023002233
:1025E0000021606A00F07FFB08E0002084F82900E9
:1025F000002300220021606A00F075FB10BD00007E
:1026000010B58EB00400E16BA06B01F014FA616CA0
:10261000206C01F028FAE16CA06C01F03CFA09A8EA
:10262000DFF82C15102201F081FD09A9012001F02D
:102630004FFA10F1010F01D1002031E001A8DFF8BD
:102640001415182201F072FD07A8DFF80C150CC94B
:102650000CC008390838062207A901A801F091FD2D
:102660000422A11D0DF10A0001F08BFD042214F1DA
:102670000A010DF10E0001F084FD042214F10E0197
:102680000DF1120001F07DFD01A9002001F0C2FA58
:10269000DFF8C8040068009000A801F00CFD0120DC
:1026A0000EB010BD38B50400607F00281ED0002396
:1026B00000220021A06900F0ACFB012816D1656959
:1026C000617F2878C02808D000206077002300228E
:1026D0000021A06900F007FB10E0C9B2280001F05A
:1026E000C2FD002802D0280001F07BFD00206077A9
:1026F000002300220021A06900F0F5FA31BD00009E
:102700002DE9F8430400894615001E000027D4F87F
:10271000208000234FF4FA720021606A00F079FBF8
:10272000002801D0012000E00020B8F1000F06D001
:1027300094F82910002902D1C0B2002801D100204C
:1027400049E100205FFA89F9B9F1030F00D10220B5
:10275000C021FFB207F808107F1C1021FFB207F854
:1027600008107F1C1021FFB207F808107F1C2021E1
:10277000FFB207F808107F1CC0B2C0280AD1DB20C6
:10278000FFB207F808007F1CDC20FFB207F8080042
:102790007F1C11E0C0B2DB280AD1DB20FFB207F8B2
:1027A00008007F1CDD20FFB207F808007F1C03E053
:1027B000FFB207F808007F1C0120FFB207F80800ED
:1027C0007F1C0120FFB207F808007F1CF6B2701EC4
:1027D0005FFA89F959EA001050F08000C0280AD148
:1027E000DB20FFB207F808007F1CDC20FFB207F8EF
:1027F00008007F1C1DE0F6B2701E5FFA89F959EAE5
:10280000001050F08000DB280AD1DB20FFB207F86F
:1028100008007F1CDD20FFB207F808007F1C08E0DD
:10282000701E59EA001050F08000FFB207F808004F
:102830007F1C002009E0C0B2072101FB005189790B
:10284000FFB207F808107F1C401CC0B2F6B2B042BD
:1028500080F0AD80C0B2072101FB00510978C0298A
:102860000AD1DB21FFB207F808107F1CDC21FFB280
:1028700007F808107F1C1AE0C0B2072101FB0051C5
:102880000978DB290AD1DB21FFB207F808107F1C89
:10289000DD21FFB207F808107F1C08E0C0B2072155
:1028A00001FB00510978FFB207F808107F1CC0B285
:1028B000072101FB005149788901C0290AD1DB2198
:1028C000FFB207F808107F1CDC21FFB207F80810E0
:1028D0007F1C09E0C0B2072101FB00514978890142
:1028E000FFB207F808107F1C00210BE0C9B2C0B28C
:1028F000072202FB00528A189278FFB207F80820DC
:102900007F1C491CC0B2072202FB00525278C9B298
:10291000914227D2C9B2C0B2072202FB00528A18E4
:102920009278C02A0AD1DB22FFB207F808207F1C68
:10293000DC22FFB207F808207F1CE2E7C9B2C0B270
:10294000072202FB00528A189278DB2ACED1DB22C2
:10295000FFB207F808207F1CDD22FFB207F808202D
:102960007F1CCEE7C0B2072101FB00518979C02945
:102970000AD1DB21FFB207F808107F1CDC21FFB26F
:1029800007F808107F1C5FE7C0B2072101FB005168
:102990008979DB297FF44FAFDB21FFB207F80810FC
:1029A0007F1CDD21FFB207F808107F1C4CE70020D8
:1029B000FFB207F808007F1CC020FFB207F808002C
:1029C0007F1C84F82970002300220021606A00F037
:1029D0008AF93800C0B2BDE8F28310B586B00400B1
:1029E000200000F017F80121200000F094F800A862
:1029F0005B49142201F09AFB00A9200001F070FC51
:102A00000121200001F09AFC0121200001F088FC46
:102A100006B010BD10B58AB05249884224D11022A8
:102A2000514900A801F098FCDDE90001CDE902015F
:102A300020224D4900A801F08FFCDDE90001CDE91D
:102A400004014022484900A801F086FCDDE90001AC
:102A5000CDE906018022444900A801F07DFCDDE9B2
:102A60000001CDE908012AE04049884227D14FF40E
:102A700080523F4900A801F06FFCDDE90001CDE97B
:102A800002014FF400523A4900A801F065FCDDE96B
:102A90000001CDE904014FF48042354900A801F05E
:102AA0005BFCDDE90001CDE906014FF4004230494D
:102AB00000A801F051FCDDE90001CDE90801002486
:102AC00008E018220321E4B202A810EBC40001F0D0
:102AD00093FC641CE4B2042C1BDAE4B2200000284E
:102AE00003D0401E0228ECD9F3E710220321E4B200
:102AF00002A810EBC40001F07FFCE4B202A810EBC6
:102B0000C4008188E4B202A850F8340001F0F1FC5E
:102B1000DFE70AB010BD38B504000D000121012027
:102B200001F05AFD0F48844206D12900C9B24FF482
:102B3000805001F051FD08E00C48844205D1290085
:102B4000C9B24FF4804001F057FD31BDC43F0020B1
:102B5000186E0008346C0008146F00082C6F000811
:102B6000B46D00080030014000080140003800400A
:102B7000000C014010B590B00400202200A92000F4
:102B800001F023FB202208A9200001F023FB05E02F
:102B90002000216B88476420FEF781FE4FF44270CD
:102BA00000F072FA00282FD0132817D0172802D06F
:102BB0001C280FD0ECE74FF4027000F065FAC00754
:102BC00004D501214FF4027000F082FA2000FFF7D3
:102BD000ABFCDDE7002000F079FDD9E72288A11CDD
:102BE000002000F0E1FC00235FF0FF320021606A6A
:102BF00000F00FF9002084F82900002300220021B2
:102C0000606A00F070F8C3E7002000F08DFC00233C
:102C10004CF250320121002000F0D4FBB8E7000054
:102C200070B504000D00002C30D04C20FFF76EFB77
:102C30000600002E2AD005FB04F0401CFFF766FBBF
:102C40003060306800281ED0306805FB04007060DA
:102C50000020B0633068B060601E316805FB001072
:102C6000F060F46335645FF0FF3070645FF0FF3054
:102C7000B06416F11000FFF771FA16F12400FFF7A7
:102C80006DFA300003E03000FFF7A7FB002070BDB5
:102C900010B54C20FFF73AFB0400002C21D0002097
:102CA0006060002020600020A0600020E060002024
:102CB000A0630120E063002020645FF0FF306064C7
:102CC0005FF0FF30A06414F11000FFF747FA14F131
:102CD0002400FFF743FA002300220021200000F027
:102CE00002F8200010BDF7B504000D001E000027FB
:102CF00004E0200000F060F9FEF7ABFEFFF7F6F904
:102D0000A06BE16B884213D232002900200000F052
:102D100009F9606A002807D014F12400FFF717F8BA
:102D2000012801D1FFF7DDF9FFF7E9F9012041E0C2
:102D30000298002803D1FFF7E2F900203AE0002FC3
:102D400003D100A8FFF738F80127FFF7D8F9FEF7FD
:102D500078FEFFF7CBF9606C10F1010F01D1002074
:102D60006064A06C10F1010F01D10020A064FFF796
:102D7000C6F902A900A8FFF727F8002813D1200000
:102D800000F05EF90028B4D0029914F11000FEF7AB
:102D9000A8FF200000F010F9FEF75BFE0028ADD17F
:102DA000FFF79FF9AAE7200000F006F9FEF751FEB1
:102DB00001000020FEBD2DE9F04104000E001500C9
:102DC0001F005FF00008FFF745FAA06BE16B884237
:102DD00019D23A003100200000F0A4F8A06C10F1E4
:102DE000010F0BD1606A00280BD014F12400FEF70C
:102DF000AEFF002805D00120286002E0A06C401C36
:102E0000A064012400E00024FFF72BFA2000BDE8B5
:102E1000F081F7B504000D001E00002704E020003B
:102E200000F0CAF8FEF715FEFFF760F9A06B002866
:102E30002BD0E7682900200000F0A9F8002E14D15B
:102E4000A06B401EA0632068002802D1FFF7A1F804
:102E500060602069002814D014F11000FEF777FF9D
:102E600001280ED1FFF73DF90BE0E760606A00280A
:102E700007D014F12400FEF76AFF002801D0FFF705
:102E800030F9FFF73CF901204BE00298002803D10C
:102E9000FFF735F9002044E0002F03D100A8FEF72A
:102EA0008BFF0127FFF72BF9FEF7CBFDFFF71EF98C
:102EB000606C10F1010F01D100206064A06C10F172
:102EC000010F01D10020A064FFF719F902A900A8A1
:102ED000FEF77AFF00281DD1200000F0A2F800289C
:102EE0009DD02068002806D1FFF700F96068FFF741
:102EF00059F8FFF704F9029914F12400FEF7F1FEE6
:102F0000200000F059F8FEF7A4FD00288CD1FFF74F
:102F1000E8F889E7200000F04FF8FEF79AFD01007D
:102F20000020FEBD10B50400206C002808D12068E8
:102F3000002828D16068FFF768F80020606022E070
:102F4000002A0ED1226CA06801F01BF9206CA16848
:102F50004018A060A0686168884214D32068A0600F
:102F600011E0226CE06801F00CF9206C4042E1684D
:102F70004018E060E0682168884204D2206C40423A
:102F800061684018E060A06B401CA06310BD80B574
:102F900003000800196800290DD0196CDA68891837
:102FA000D960D9685A68914201D31968D9601A6CFE
:102FB000D96801F0E6F801BD10B50400FFF796F8F6
:102FC0000AE014F12400FEF7C2FE002801D0FEF74B
:102FD0002AFFA06C401EA064A06C012802DB606A7E
:102FE0000028EED15FF0FF30A064FFF788F8FFF70C
:102FF0007DF80AE014F11000FEF7A9FE002801D0C8
:10300000FEF711FF606C401E6064606C012802DBFB
:1030100020690028EED15FF0FF306064FFF76FF8A1
:1030200010BD10B50400FFF761F8A06B002801D1B6
:10303000012400E00024E4B2FFF761F8200010BD95
:1030400010B50400FFF752F8A06BE16B884201D184
:10305000012400E00024E4B2FFF751F8200010BD85
:10306000002200E0521C002A0BD1064B53F83230EC
:10307000002BF7D1034B43F83210024911EBC20188
:1030800048607047E03F002010B504005648806853
:103090008047554800698047200CC0B25249C96931
:1030A0008847200AC0B25049C96988472000C0B289
:1030B0004D49C96988474C488069804704004A489F
:1030C000406980474848C06880472000C0B210BDB2
:1030D00038B505000C0044488068804742480069C4
:1030E000804755F00405280CC0B23F49C96988479C
:1030F000280AC0B23C49C96988472800C0B23A4989
:10310000C96988472000C0B23749C969884736482D
:10311000406980473448C068804731BD2DE9F0419F
:1031200004000D00160000275FF000082E4880689C
:1031300080472D4800698047200CC0B22A49C969E0
:103140008847200AC0B22849C96988472000C0B210
:103150002549C96988470020070005E022488069A1
:103160008047BFB278557F1CBFB2B6B2B742F5D325
:103170001D48406980471C48C0688047BDE8F08111
:103180002DE9F04104000D00160000275FF0000853
:1031900015488068804714480069804754F004044B
:1031A000200CC0B21049C9698847200AC0B20E4934
:1031B000C96988472000C0B20B49C9698847002007
:1031C000070005E0BFB2785D0749C96988477F1CE1
:1031D000BFB2B6B2B742F5D3034840698047024850
:1031E000C0688047BDE8F0810000002070B5040091
:1031F00000260025E4B2A000C00000F50050083011
:10320000FFF742FF0500ADB2E4B2A000C00000F538
:1032100004500830FFF738FF10EB0525ADB2002D44
:1032200013D0E4B2A000C00000F500500830FFF752
:103230002BFF0600B6B2E4B2A000C00000F50450B7
:103240000830FFF721FF10EB0626B6B2ADB2AE4252
:10325000D0D1300080B270BD70B5040000260025CA
:10326000E4B2A000C00000F518500830FFF70CFFD2
:103270000500ADB2E4B2A000C00000F51C5008305B
:10328000FFF702FF10EB0525ADB2002D13D0E4B21D
:10329000A000C00000F518500830FFF7F5FE06004A
:1032A000B6B2E4B2A000C00000F51C500830FFF731
:1032B000EBFE10EB0626B6B2ADB2AE42D0D1300076
:1032C00080B270BDF8B504000D0016000027002084
:1032D000B6B2002E35D0E4B2A000C00000F5105008
:1032E0000830FFF7D1FE0700FFB2E4B2A000C00033
:1032F00000F514500830FFF7C7FE10EB0727BFB2E8
:10330000E4B2A000801CC00010EB0720320092B293
:103310002900FFF735FFF719BFB2390AC9B2E4B285
:10332000A000C00000F510500830FFF7D1FE3900B2
:10333000C9B2E4B2A000C00000F514500830FFF795
:10334000C7FEF1BDF8B504000D00160000270020EF
:10335000B6B2002E35D0E4B2A000C00000F5205077
:103360000830FFF791FE0700FFB2E4B2A000C000F2
:1033700000F524500830FFF787FE10EB0727BFB297
:10338000E4B2A000C01CC00010EB0720320092B2D3
:103390002900FFF7C3FEF719BFB2390AC9B2E4B278
:1033A000A000C00000F520500830FFF791FE390062
:1033B000C9B2E4B2A000C00000F524500830FFF705
:1033C00087FEF1BDF8B504000F0015001E00E4B241
:1033D000092C02DB5FF0FF30A5E0FFB23800401E91
:1033E000012801D9C01E12D10620064212D1F6B220
:1033F000002E22D0FFB23800012802D002280DD0C2
:103400001BE02120064208D17FF005008BE07FF011
:10341000040088E07FF0050085E00EE0B00604D5EA
:10342000300602D47FF005007DE0F00604D53006BA
:1034300002D47FF0050076E0FFE72000C0B200F084
:1034400073F816F0F00050EA0701C9B2E4B2A00028
:10345000401CC000FFF73CFEADB2002D15D1DFF8D7
:10346000AC050588DFF8A4050088401CDFF89C1532
:103470000880DFF8980500884FF6F071884204D183
:103480004FF44040DFF884150880ADB2290AC9B274
:10349000E4B2A000C00010F58160FFF719FE29001A
:1034A000C9B2E4B2A000C00010F5A160FFF710FEA1
:1034B0000121E4B2A000C00010F58470FFF708FEFF
:1034C000E4B2A000C00010F58470FFF7DDFD002815
:1034D000F6D1DFF83C050088F6B216F00101A140F4
:1034E0000843DFF82C150880DFF828050088012143
:1034F000A1408843DFF81C1508800020E4B2DFF803
:10350000181521F814000020E4B2DFF810156054FB
:10351000E4B2A000C00010F54270FFF7B5FD00282E
:10352000F6D0200040B2F2BD10B50400E4B2092C80
:1035300002DB5FF0FF3036E01021E4B2A000C000F3
:1035400010F58470FFF7C4FDE4B2A000C00010F5D0
:103550008470FFF799FD0028F6D11F21E4B2A00086
:10356000C00010F50270FFF7B3FDDFF8A804008873
:103570000121A1408843DFF89C1408800020E4B2B8
:10358000DFF8941421F814000020E4B2DFF88C1462
:103590006054E4B2A000C00010F54270FFF774FD63
:1035A0000028F6D1012010BD70B504000D001600F2
:1035B000E4B2092C02DB5FF0FF3086E0E4B2A00049
:1035C000401CC000FFF760FD10F00F00012802D082
:1035D0007FF0040079E0E4B2A000C00010F5427072
:1035E000FFF752FD132802D07FF002006DE028782B
:1035F000697811EB0020A97811EB0020297811EBF4
:10360000002010F1010F01D0002802D17FF00B0043
:103610005BE0B6B2002E02D17FF00A0055E0042232
:103620002900E4B2A000C00000F60840FFF7A8FDA2
:10363000B6B2310AC9B2E4B2A000C00000F58050B1
:103640000830FFF745FD3100C9B2E4B2A000C00068
:1036500000F588500830FFF73BFD0421E4B2A000DC
:10366000C00010F58470FFF733FDE4B2A000C00085
:1036700010F58470FFF708FD0028F6D1DFF89003FD
:1036800000880121A140084201D000201DE0E4B2E1
:10369000A000C00010F54270FFF7F6FC172813D009
:1036A000E4B2A000C00010F50270FFF7EDFC0007C7
:1036B000EDD50821E4B2A000C00010F50270FFF7BC
:1036C00007FD7FF00C0000E0012070BD10B5040084
:1036D000E4B2092C02DB5FF0FF3049E0E4B2A00065
:1036E000401CC000FFF7D0FC10F00F00012802D0F2
:1036F0007FF004003CE00821E4B2A000C00010F517
:103700008470FFF7E5FCE4B2A000C00010F58470FF
:10371000FFF7BAFC0028F6D1DFF8F8020088012193
:10372000A1408843DFF8EC120880DFF8E40200884B
:103730000121A140084201D0002019E0E4B2A0001C
:10374000C00010F54270FFF79FFC00280FD0E4B2D4
:10375000A000C00010F50270FFF796FC0007EDD541
:103760002000C0B2FFF7E0FE7FF00C0000E0012077
:1037700010BDF8B504000D00160000200027E4B2CB
:10378000092C02DB5FF0FF30ABE0E4B2A000401C8C
:10379000C000FFF779FC10F00F00012802D07FF085
:1037A00004009EE0B6B2002E02D17FF00D0098E03A
:1037B000E4B2A000C00010F54270FFF765FCC0B293
:1037C000172805D0C0B21C2802D07FF0060088E080
:1037D000DFF8400200880121A14008421BD0E4B27A
:1037E000A000C00010F50270FFF74EFC10F01F00A3
:1037F000C10637D51021E4B2A000C00010F5027058
:10380000FFF766FCDFF80C0200880121A140884325
:10381000DFF800120880E4B2A000C00000F5F85004
:103820000830FFF731FC8702BFB2B6B2B74200D210
:103830003E002000C0B2FFF7D9FC0700E4B2A000B0
:10384000C00010F54270FFF71FFCC0B2172814D05B
:10385000C0B21C2811D02000C0B2FFF765FE7FF077
:1038600006003EE0000706D52000C0B2FFF75CFE70
:103870007FF00C0035E0002033E0DFF89401008891
:103880000121A140084205D0BFB2B6B2B74201D271
:10389000002026E0BFB2B6B2B742CAD3320092B21D
:1038A00029002000C0B2FFF70DFD2021E4B2A000E6
:1038B000C00010F58470FFF70BFCE4B2A000C0005C
:1038C00010F58470FFF7E0FB0028F6D1DFF8440123
:1038D00000880121A1400843DFF838110880B6B202
:1038E0003000F2BD2DE9F04104000D00160000206B
:1038F0000027E4B2092C02DB5FF0FF3083E0E4B282
:10390000A000401CC000FFF7BFFB10F00F00012813
:1039100002D07FF0040076E0B6B2002E02D17FF034
:103920000D0070E0E4B2A000C00000F5F0500830D7
:10393000FFF7AAFB8702BFB2B6B2B74200D23E0081
:103940002000C0B2FFF788FC0700E4B2A000C0006E
:1039500010F54270FFF798FBC0B2172825D0C0B20F
:103960001C281BD1BFB2002F2ED12000C0B2FFF700
:103970003DFC80461FFA88F8E4B2A000C00000F5C4
:10398000F8500830FFF780FBB8EB802F0DD12000F6
:10399000C0B2FFF7C9FD7FF0060034E02000C0B2DE
:1039A000FFF7C2FD7FF006002DE0DFF8640000881D
:1039B0000121A140084204D0BFB2002F01D1002054
:1039C00021E0BFB2002FBBD0BFB2B6B2B74200D227
:1039D0003E00320092B229002000C0B2FFF7B2FCD4
:1039E0004021E4B2A000C00010F58470FFF770FB26
:1039F000E4B2A000C00010F58470FFF745FB00287A
:103A0000F6D1B6B23000BDE8F08100002C000020F5
:103A10008040002082400020783F002008400020A5
:103A20007047704770477047007870470170704763
:103A30000020704770470200002A02D00A00002AC6
:103A40000AD1DFF81C06DFF81C168860DFF81806BC
:103A5000DFF81016C86005E0DFF808269060DFF890
:103A60000406C16070470200002A02D00A00002A42
:103A70000AD1DFF8F805DFF8EC150861DFF8F0058A
:103A8000DFF8E015486105E0DFF8D8251061DFF8C0
:103A9000D40541617047DFF8CC2512889205FAD52C
:103AA0000200002A02D00A00002A0AD1DFF8C40569
:103AB000DFF8B0158861DFF8C005DFF8A815C86128
:103AC00005E0DFF8A0259061DFF89805C161704737
:103AD00030B583B00C00002100AA0023002528C2C5
:103AE000083AC0B2002817D0022828D018D30428DA
:103AF00029D020D306282ED029D3082848D039D35E
:103B00000A285FD05BD30C2864D05FD30E2866D020
:103B100061D30F286FD07AE000F0A6F800203EBDF8
:103B2000002C03D00094009808300190019900986F
:103B300000F0D5F8F3E7208800F01DF9EEE700F07B
:103B40002BF92080EAE7208800F03FF9E6E700F053
:103B50004CF92080E2E7208880B2010AC9B24FF414
:103B60009850FFF7B5FA2188C9B24FF4A050FFF77B
:103B7000AFFAD3E74FF49850FFF786FA0500EDB29D
:103B80004FF4A050FFF780FA10EB05202080C5E726
:103B9000DFF8D00480782070DFF8C804C078607047
:103BA000DFF8C0040079A070DFF8B8044079E07055
:103BB000DFF8B0048079207100206071AEE700F07A
:103BC00046F9ABE7200000F05CF9A7E7200000F021
:103BD00082F9A3E7A2E7207800F0B6F99FE700F0AA
:103BE00027F9010049B211F1010F02D15FF0FF3056
:103BF00095E7217092E700F00FF9010049B211F149
:103C0000010F02D15FF0FF3089E7217086E75FF096
:103C1000FF3084E710B50C00C0B2002808D002289D
:103C20000FD00AD3042814D00FD3052815D018E0DC
:103C3000200000F0BDF9002010BD200000F0E4F9E4
:103C4000F9E7207800F01EFAF6E700F02FFA20706E
:103C5000F1E7200000F02FFAEDE7200000F041FA34
:103C6000E9E75FF0FF30E7E700B585B0062203A97A
:103C70004FF41060FFF752FA042202A94FF480704B
:103C8000FFF74CFA042201A94FF4A060FFF746FAAF
:103C9000042200A94FF47060FFF740FA8021002051
:103CA000FFF716FA0020FFF7EFF9062203A94FF4F9
:103CB0001060FFF765FA042202A94FF48070FFF745
:103CC0005FFA042201A94FF4A060FFF759FA042219
:103CD00000A94FF47060FFF753FA05B000BDF8B5C6
:103CE00006000C000027FFF7BFFF002E1FD00027A3
:103CF000002503E06DB2A857C7196D1C6DB2082DE1
:103D0000F8DB7FB2112F02DB5FF0FF3032E00025DD
:103D10000AE06DB2A95D6DB2A800C00000F5F850D0
:103D20000830FFF7D5F96D1C6DB2082DF1DB002CC2
:103D30001FD00027002503E06DB22857C7196D1C5E
:103D40006DB2082DF8DB7FB2112F02DB5FF0FF3080
:103D500010E000250AE06DB2295D6DB2A800C00038
:103D600000F5F0500830FFF7B3F96D1C6DB2082D67
:103D7000F1DB0020F2BD10B5010080B2040A11F0A1
:103D8000F0014FF4A850FFF7A3F92100C9B24FF496
:103D9000B850FFF79DF910BD70B50024002500262E
:103DA0004FF4A850FFF770F910F0F00004004FF442
:103DB000B850FFF769F90500EDB22E00B6B2E4B2D3
:103DC00014EB0626300080B270BD10B5010080B241
:103DD000040AC9B24FF4B050FFF77AF92100C9B212
:103DE0004FF4C050FFF774F910BD70B500240025E2
:103DF00000264FF4B050FFF747F904004FF4C050CD
:103E0000FFF742F90500EDB22E00B6B2E4B214EBB2
:103E10000626300080B270BD80B54FF43850FFF7F1
:103E200033F9C00701D5012000E0002040B202BDF7
:103E300010B500244FF43850FFF726F9302108421E
:103E400001D0012400E00024200040B210BD80B564
:103E50004FF43850FFF718F910F07F000100C9B295
:103E60004FF43850FFF734F94FF43850FFF70CF99E
:103E700050F080000100C9B24FF43850FFF728F924
:103E800001BD80B500210278012A02D151F0400124
:103E900001E011F0BF014278012A02D151F038014E
:103EA00011E0C278012A08D18078012802D151F0AE
:103EB000180108E051F0080105E08078012802D1DE
:103EC00051F01001FFE7C9B24FF43850FFF700F985
:103ED000FFF7BDFF01BD38B5040000254FF4385091
:103EE000FFF7D2F80500C5F3801010F00100207034
:103EF000EDB215F03800C0B2202801D0382802D128
:103F00000120607001E000206070EDB215F0380013
:103F1000C0B2102803D0182801D0202802D10120D7
:103F2000A07001E00020A070EDB215F03800C0B222
:103F3000082803D0182801D0202802D10120E070E1
:103F400001E00020E07031BD38B5040000254FF4D9
:103F50003850FFF799F80500680602D45FF0FF308B
:103F600025E015F0C705E4B2012C02D155F030056B
:103F700001E055F038052900C9B24FF43850FFF779
:103F8000A7F8FFF764FF4FF43850FFF77DF80500FE
:103F9000E4B2012C04D13020054206D0002006E016
:103FA0003820054201D0002001E05FF0FF3032BD33
:103FB00010B50400062221004FF41060FFF7E0F86E
:103FC000042214F10E014FF48070FFF7D9F8042297
:103FD00014F10A014FF4A060FFF7D2F80422A11DEA
:103FE0004FF47060FFF7CCF8A07C24490870E07CA7
:103FF00022494870207D21498870607D1F49C87022
:10400000A07D1F49087010BD10B5040006222100D4
:104010004FF41060FFF782F8042214F10E014FF400
:104020008070FFF77BF8042214F10A014FF4A060BE
:10403000FFF774F80422A11D4FF47060FFF76EF8CB
:104040000E480078A0740D484078E0740B488078E2
:1040500020750A48C078607509480078A07510BDC1
:10406000213A000800000020233A0008253A000801
:10407000273A0008313A0008353A00087840002015
:104080008D40002010B504000020C5210C4202D054
:104090005FF0FF3009E00020FEF7F6FF204301004B
:1040A000C9B20020FFF714F8002010BD80B5002031
:1040B000FEF7EAFF02BD10B5040021784FF4D85096
:1040C000FFF706F8608880B2010AC9B24FF4C85001
:1040D000FEF7FEFF6188C9B24FF4D050FEF7F8FF3B
:1040E00010BD38B504004FF4D850FEF7CDFF207056
:1040F0004FF4C850FEF7C8FF0500EDB24FF4D050A2
:10410000FEF7C2FF10EB0520608031BD62B38B0764
:1041100008D0521E11F8013B00F8013B00F024804A
:104120008B07F6D1830740F0208000BF103A07D3F9
:1041300030B4B1E83810103AA0E83810F9D230BCE9
:10414000530724BFB1E80810A0E8081044BF51F895
:10415000043B40F8043BD20724BF31F8022B20F87F
:10416000022B44BF0B7803707047083A07D3B1E8BD
:104170000810083A40F8043B40F804CBF7D2530744
:10418000E4E710B50446FFF7C1FF204610BD38B57F
:10419000040015000422A01CFFF7F3FF258031BDA9
:1041A00070B5040015001E000422A01DFFF7E9FFF2
:1041B0000422290014F10A00FFF7E3FF0422310072
:1041C00014F10E00FFF7DDFF70BD416102770021A1
:1041D00041777047016280F82820002180F829107B
:1041E0007047F0B583B004006078102805D160797D
:1041F000012802D1A079012800D033E0E079C0F392
:104200000210451C0827002616E0FFB2395DC0B237
:1042100000AA821891707F1C401C9DF80110C0B24A
:104220008842F2D3FFB2385D8DF806007F1CDDE9CD
:10423000000100F0F5F9761CF6B2EDB2AE4211D2F3
:10424000FFB2385D8DF800007F1CFFB2385DC0B250
:1042500080098DF801007F1C9DF80100052801DA16
:104260000020DAE7F7BD10B4012200E0521CD2B200
:10427000C9B28A4228D2D2B2135CC02B24D0D2B2A7
:10428000135CDB2BF2D1D2B213185B78DC2B04D099
:10429000D2B213185B78DD2B16D1130005E0DBB228
:1042A0001C186478DBB21C545B1CDBB2C9B28B42B5
:1042B000F5D3D2B2135CDC2B01D1C02300E0DB23A9
:1042C000D2B21354491ED1E7D2B2C9B2481E8242BB
:1042D00001D1012000E00020C0B210BC70470000F6
:1042E00010B4002203881A0012F441520B884C8843
:1042F00023438C882343CC8823430C8923434C8954
:1043000023438C892343CC8923431A430280828B25
:104310004FF2FF731A408283098A018210BC7047F2
:10432000C9B2002904D0018851F04001018004E0A5
:1043300001884FF6BF72114001807047C9B2002951
:1043400004D0818851F00401818004E081884FF617
:10435000FB721140818070471CB504000091ADF8DC
:1043600004201E48814204D10121042000F034F9C8
:104370002FE01B48814204D10121082000F02CF9D4
:1043800027E01848814204D10121102000F024F9CF
:104390001FE01548814204D10121202000F01CF9C2
:1043A00017E01248814204D10121402000F014F9A5
:1043B0000FE00F48814204D10121802000F00CF968
:1043C00007E00C48814204D101214FF4807000F0D5
:1043D00003F9DDE90001C4E9000116BD0008014050
:1043E000000C014000100140001401400018014081
:1043F000001C01400020014080B58388ADF80030EA
:104400008DF802108DF8032000A9006800F002F872
:1044100001BD0000F0B40022002600240025002386
:10442000002791F803C01CF00F0C624691F803C0FE
:104430005FEACC6C01D58B781A430B781B0621D030
:104440000368002406E0CD78482D02D10125A5405F
:104450000561641C082C14D20125A5400E882E404D
:10446000AE42F6D1A5000F2616FA05F7BB4312FAA5
:1044700005F52B43CD78282DE5D10125A5404561D3
:10448000E7E703600B88FF2B26DD4368002420E06C
:10449000012514F10806B5400E882E40AE4217D112
:1044A000A5000F2616FA05F7BB4312FA05F52B43B4
:1044B000CD78282D04D1012514F10806B5404561B9
:1044C000CD78482D04D1012514F10806B5400561C9
:1044D000641C082CDCD34360F0BC70470022806869
:1044E00089B2084201D0012200E000221000C0B2CF
:1044F000704789B20161704789B24161704770B4F9
:104500000022002400230025002802D52F4A13682A
:1045100001E02F4A1368C0F3034582B210F440143F
:10452000B4F5401F08D133F07063294C246834F08F
:104530007064274D2C600FE0C40205D50324AC4005
:10454000A34353F0706307E0440DE4B2240112FA70
:1045500004F4A34353F07063C9B2002905D0410DA0
:10456000C9B2090112FA01F10B43002802D517481C
:10457000036001E01648036070BC704710B400226D
:104580000F2311F00304E4B2A400A3401A00C9B23F
:104590008B10104C54F8233033EA0202C9B28B104E
:1045A0000C4C44F82320C9B28A100A4B53F822203D
:1045B000C0B211F00303DBB29B0098401043C9B2B4
:1045C0008910044A42F8210010BC70471C000140C9
:1045D0000400014008000140C9B2002905D00E497D
:1045E000096808430C49086005E00B49096831EA8D
:1045F0000000094908607047C9B2002905D0074981
:10460000096808430549086005E00449096831EA7A
:104610000000024908607047181002401C10024058
:1046200003B581B09DF80400B72806D0C02808D192
:10463000DDE9010100F006F803E0DDE9010100F029
:1046400038F807BD03B581B0224800909DF80600F8
:10465000002803D0022816D007D321E09DF80700D8
:10466000002801D11B4800901AE09DF8070001289E
:1046700002D11948009005E09DF80700022801D1F9
:10468000164800900CE09DF80700012802D114485C
:10469000009005E09DF80700022801D11148009024
:1046A0000023002200A910480068C06AFEF71BFB27
:1046B00007BD03B581B09DF80A00002809D10B4859
:1046C00000900023002200A907480068C06AFEF796
:1046D0000AFB07BDC46E00084C6C0008606C000843
:1046E000746C0008886C000818400020CC6E00082C
:1046F00080B5DFF86C050078002823D100F0CCFAF3
:1047000000F020FB00210120FEF78AFADFF85415A3
:104710000860DFF850050068002807D00023002259
:104720000021DFF840050068FEF7DDFA00230022D3
:104730000021DFF830050068FEF7D5FA0120DFF828
:104740002015087001BD0EB478B50600099CE4B2CE
:104750000C2000FB04F02C30FCF75EFB0500002D64
:1047600024D02E60281D05A91022FFF7DFFC0020B1
:10477000287500206875002085F82600002085F83F
:10478000270085F82840002085F8290000200AE04D
:104790000021C0B215EB800291750021C0B215EB6B
:1047A00080021183401CC0B20428F1DB280072BCD7
:1047B0005DF810FB80B5FCF78EFC01BD38B5040038
:1047C000201D00F099FA02E06420FDF768F86068A7
:1047D000DFF894148842F7D1002508E00021EDB2FB
:1047E0000C2000FB05402C3000F0BDFA6D1C94F845
:1047F0002900EDB28542F1D331BD38B50400201D4A
:1048000000F083FA002084F82600002508E001214A
:10481000EDB20C2000FB05402C3000F0A4FA6D1C1A
:1048200094F82900EDB28542F1D331BD1FB50400E3
:104830002175607D14EB800081752000FFF7DDFF9E
:104840000020039000200290DFF820040190012056
:10485000009023008022DFF818140FF26930FCF773
:1048600001FF1FBD10B50400207D411E2175C0B29F
:10487000032815D10023002200212069FEF7C9FA80
:1048800001280BD12000FFF799FF200000F069F903
:104890000023002200212069FEF725FA002000E015
:1048A000012010BD38B50400200000F014F884F891
:1048B000270094F8260094F82710081800F05CFAF6
:1048C000050094F82700401C00F056FA010028006B
:1048D00000F06CFA32BD2DE9F04F85B004000025E0
:1048E00015E0F6B214EB8600008B00F04FFA0700DB
:1048F000F6B214EB8600807D00F048FA0100380023
:1049000000F054FAEDB200A941F825006D1CEDB29B
:10491000042D0FDA607DEDB22818042190FBF1F62A
:1049200006FB1106F6B214EB8600807D0028D8D174
:104930000020D4E0002600275FF000085FF0000AA6
:1049400000255FF000091CE05FFA89F919F1010008
:1049500000F012FA5FF0814100F028FA310000F017
:10496000A3FA06005FFA89F900A850F829005FF061
:10497000814100F01BFA390000F096FA070019F1A6
:1049800001095FFA89F9B9F1040FDDDB5FF0000975
:104990004CE05FFA89F919F1010000F0EDF93100FE
:1049A00000F0C4FA83465FFA89F919F1010000F0BA
:1049B000E3F9310000F0BAFA594600F02BFB41460A
:1049C00000F072FA80465FFA89F900A850F82900D1
:1049D000390000F0ABFA83465FFA89F900A850F875
:1049E0002900390000F0A2FA594600F013FB5146A5
:1049F00000F05AFA82465FFA89F919F1010000F0D5
:104A0000BBF9310000F092FA83465FFA89F900A8F9
:104A100050F82900390000F089FA594600F0FAFAF6
:104A2000290000F041FA050019F101095FFA89F93E
:104A3000B9F1040FADDB2800414600F0B7F981461B
:104A40002800310000F0E6FA414600F0AFF901001D
:104A5000380000F06BFA0500607D002801D10420C9
:104A600000E0607D461E8348494600F0D3FA2900E5
:104A700000F01AFA039900F059FA0500F6B214EBA7
:104A80008600807D00F082F9040003995FF07E507B
:104A900000F00AFA0100280000F088F95FF07E516A
:104AA00000F002FA210000F0B5FA0400200000F046
:104AB0001DFB00F061F90100200000F037FA6E499B
:104AC00000F036FB07D85FF07E50210000F0ECF9D3
:104AD00000F00CFB02E0200000F008FBC0B205B0C3
:104AE000BDE8F08F2DE9F84304000F001500002603
:104AF0005FF008085FF00A095FFA88F842465F49EC
:104B0000206800F027FB002803D1012038704646BA
:104B10000BE05FFA89F94A465949206800F01AFB10
:104B2000002802D1022038704E4608220827D2B24F
:104B30005449F6B22068301800F00CFB002802D16E
:104B4000012028700BE0FFB23A004F49F6B220680E
:104B5000301800F0FFFA002801D102202870BDE8CB
:104B6000F183F8B50400607D14EB8000002101831F
:104B7000002517E0607D14EB8006607D14EB80005B
:104B8000078BEDB20C2000FB05402C3000F0EDF857
:104B9000C0193083EDB20C2000FB05402C3000F032
:104BA000DFF86D1C94F82900EDB28542E2D3607DF8
:104BB000401C042190FBF1F202FB11026275F1BD71
:104BC0000000000010B582B0040000230022002184
:104BD00024480068FEF71DF91DE0C0B22B490968A2
:104BE00011EB8001496BC0B2284A126812EB8002B7
:104BF000526B92F82620521C81F82620401C234933
:104C0000096891F83310C0B28842E6D34FF47A7144
:104C100000A8FCF7F7FD2000FFF724FE00280CD0C9
:104C20001B488068002803D01948194989688847BB
:104C3000FCF77CFF00900020E1E700230022002128
:104C400014480068FEF74FF80023002200210548B1
:104C50000068FEF748F80020FCF79AFD13BD00003D
:104C60008740002028400020DC6E000824400020FF
:104C7000046C00080000A0400100003F506E0008D6
:104C80005C6E0008686E0008746E00081840002012
:104C9000C43F00202040002080B51548007800283F
:104CA00004D100F06DFA01201149087001BDF0B582
:104CB00085B004000D0016001F0000A80D49102249
:104CC000FFF734FA01958DF808608DF809700A989D
:104CD0008DF80A00FDF7DCFF039000A800F020F833
:104CE000200000A91022FFF721FA05B0F0BD000056
:104CF00088400020D86D000880B501680968002947
:104D000002D001680968884701BD80B5016849681B
:104D1000002902D001684968884701BD01607047D9
:104D200010B50400A17A606800F0D7FA217A6068B3
:104D300000F0D3FA617A606800F0B1FA606800F0C0
:104D4000EAFA10BD80B505480078002804D100F0CB
:104D50003BFB01200149087001BD00008640002096
:104D600000210172704701717047017AC07900FB20
:104D700001F080B270470000002840F10980F4463D
:104D8000404200F005F850F000406047002800BFA6
:104D90000AD0B0FA80F18840D1F19D01C905020620
:104DA00072F1004241EB10207047000010B5FF2364
:104DB00013EAD0541DBF13EAD1529C429A4239E003
:104DC000A41ADA0780EA0103134042EA012142EA09
:104DD0000020421A3CBF641E01EB4202090AB2FBEA
:104DE000F1FE01FB1E221202B2FBF1F001FB1022C8
:104DF0006EF30F201202B2FBF1FE4EEA00207F3468
:104E000006DDFE2C24DA53EA500050EBC45010BDEE
:104E1000D4F1020401FB1E2240F08071192C1DDC2C
:104E200021FA04F0C4F12004A140114371F10042C1
:104E3000584110BD9C421ABF03EAD1529A420FE07A
:104E400080EA010E0EF00043400004D0490016D164
:104E500043F0FF4010BD490008BFD343180010BD08
:104E60009C4205D1D21AF7D001F00041484010BD54
:104E70004A0212BF0846484000F0004010BD4AB93F
:104E80000902B1FA81F2914044B1A418C00140F086
:104E900000409EE7C90141F0004152420002B0FAD1
:104EA00080F4A040141B94E790EA010F44BF81F006
:104EB000004100F043B800BF421A3CBF801A891875
:104EC0004FF0004CC0F3C752FF2A24D0C1F3C753A0
:104ED00013B3D21AD2F1190327DD4CEA01214CFA9F
:104EE00003F321EA0303D140C20D4CEA002040182D
:104EF00034BF20EA0C004CEA5000D20553EA0063AC
:104F000073EB0C0C52EB1020420012F1807F38BF83
:104F10007047C00DC0057047490212BF9A4200EBAE
:104F20005120F8E7D2F11703D9D5704790EA010F65
:104F300044BF81F00041FFF7BFBF00BF431A4FF0ED
:104F400000423EBF5340C01AC91800BFD3095FEAF0
:104F5000D05C13EB400F34BFB3EB410F40E07CEB70
:104F6000D1530CD342EA012122D8D1EB402009D3FE
:104F7000400A28BF5FEA500140EBCC507047401A0E
:104F800015D04002B0FA80F2521C9040400A4FEA1D
:104F90003C23B3EB026384BF00EB730007E040F4F3
:104FA00000001A16DB07C2F10102D0401843704717
:104FB000182BFCDC31FA03F202FA03F3591A38BF5A
:104FC00042F00102D2EB40203CBF4000ACF1010CAA
:104FD0005FEACC5CC20572F100414CEB5020704797
:104FE00013EB400F0FD24B0009D0ACEBD153022B87
:104FF00003DB4902172BDDDD70479143401A430064
:10500000D5D10020704713EB410FD0D36FF00000D3
:1050100070470000FF2212EAD05C1DBF12EAD15394
:10502000944593422BE09C44D30780EA01021A4046
:1050300043EA002043EA0121A1FB0030410038BFD0
:1050400040007CF17F010BDBFE294ADA5B0842EA73
:10505000C15153EA006373F1004C51EB10207047CB
:10506000D1F1080CDCF120012FDB5B0810FA01F113
:105070000B4373F1004120FA0CF050417047944506
:105080001CBF02EAD153934280EA010202F00042BF
:105090001DD0400019D0490017D05BB9634514D02A
:1050A0000902B1FA81F39940BCEB030CC00140F056
:1050B0000040C1E70002B0FA80FC10FA0CF0B3EB3C
:1050C0000C0CC90141F00041B6E7100070474000E8
:1050D0000AD0490008D010F1807F94BF11F1807F81
:1050E00002E042F0FF407047D04370474100090E94
:1050F0007F3915D4D1F11F0114D4400007D2C0016B
:1051000040F00040C84048BF6FF000407047C00109
:1051100040F00040C8404CBF4FF000404042704754
:105120000020704700424FF0004058BFC043704716
:105130004FF0807C1CEB400F94BF1CEB410F05E04F
:1051400040EA010C5FEA4C0C01D28142704718BF63
:105150008842704701E0491C521E72B10B7890F8EA
:1051600000C09C4505D002D24FF0FF3070470120AF
:10517000704710F8013B002BEDD100207047000074
:1051800000B595B025480078002845D180222449F3
:1051900000A8FFF7E1F8DDE90001CDE902012022D6
:1051A0001F4900A8FFF7D8F8DDE90001CDE90401A7
:1051B00040221B4900A8FFF7CFF8DDE90001CDE947
:1051C00006011022164900A8FFF7C6F8DDE9000124
:1051D000CDE9080102A90AA800F02EF811480AA991
:1051E0002822FEF7A3FF00F0FBF90F490D4800F05D
:1051F000ADF80E490B4800F0A9F80D49094800F038
:10520000A5F80C49074800F0A1F80121054800F075
:10521000A9F801200149087015B000BD8B4000209D
:1052200000080140943E0020E83F0020F03F0020AD
:10523000F83F00200040002030B58BB004000D0086
:1052400000A8282100F018FAD5E90001CDE90201F3
:10525000D5E90201CDE90401D5E90401CDE9060152
:10526000D5E90601CDE908011022022102A8FFF7C5
:10527000C3F81022022104A8FFF7BEF81022022171
:1052800006A8FFF7B9F81422022108A8FFF7B4F81E
:10529000200000A92822FEF749FF0BB030BD80B5E1
:1052A00002680079401E01E0401E5268C9B208231E
:1052B00091FBF3F3C0B2834201DA002AF4D1002A51
:1052C0000AD0C9B2082391FBF3F000FB13100100D0
:1052D000C9B2100000F0C0F901BD80B502680079C4
:1052E000401E01E0401E5268C9B2082391FBF3F34F
:1052F000C0B2834201DA002AF4D1002A0AD0C9B22E
:10530000082391FBF3F000FB13100100C9B2100059
:1053100000F0A9F901BDF8B5040025680DE03100E1
:10532000C9B2200000F02CF8200000F036F876001A
:105330007F1CFFB2082FF2DB6D68002D02D02E78A3
:105340000027F6E7200000F033F8F1BD0268002ADC
:1053500001D1016002E002684A6001600179491CE4
:105360000171704780B5C9B2012904D1818C006AEE
:10537000FFF7C2F803E0818C006AFFF7BAF801BDBD
:1053800080B5090604D581898068FFF7B2F803E08B
:1053900081898068FFF7B0F801BD10B50400A18ACB
:1053A0002069FFF7A9F8A18A2069FFF7A2F810BDCC
:1053B00010B50400A18BA069FFF79EF8A18BA0692E
:1053C000FFF797F810BD000000B58BB029480078B2
:1053D000002821D1102100A800F020F8264800A9BB
:1053E0002822FEF7A3FE4FF47072244903A8FEF7AB
:1053F000B3FF2022214901A8FEF7AEFFDDE903013A
:1054000000910300DDE901010A0001001A4800F0E3
:105410009BF80120174908700BB000BD30B58BB068
:1054200004000D000FF269000090002001900FF2BF
:105430009100029002212020FDF7F2FB0790104915
:105440000798FDF70DFEEDB2A800FBF7E5FC08900C
:1054500000208DF825000898002801D10025FFE7DD
:105460008DF82450200000A92822FEF75FFE0BB023
:1054700030BD0000854000206C3E0020000C014043
:10548000B86B000880B5006AFBF725FE01BD00007F
:1054900038B504000D0094F8250094F824108842D3
:1054A0000CD2FCF723FE94F82500411C84F825104B
:1054B000C0B2216A41F82050FCF721FE31BD000046
:1054C00038B50400002512E0EDB2206A50F825003E
:1054D000006800280AD02100EDB2206A50F82500AB
:1054E000EDB2226A52F82520126890476D1C94F89C
:1054F0002500EDB28542E7D331BD70B582B004001E
:105500000D00A069C068A18A8843A169C860A0692C
:10551000C668ADB2200000F032F815FA00F0304352
:10552000A169C860218AE068FEF7D8FF0100C9B20E
:105530002800C0B200F0A3F800900023002200A9C8
:10554000E069FDF7D0FB73BD0EB418B5040004226A
:10555000032103A8FEF750FFDDE9030114F10C025B
:10556000C2E900010598A061BDF81800A0821022D0
:10557000022105A8FEF740FF11BC5DF810FB0021D9
:10558000012201E05200491C838A1342FAD008002C
:10559000C0B2704738B504000BE0290089B2200082
:1055A000FFF7ABFF6D1CADB2102DF6DB6420FCF7EE
:1055B00076F90025F7E710B582B0040001235FF00B
:1055C000FF3200A9E069FDF724FC2000FFF778FF17
:1055D0000023002200A9E069FDF71BFCEEE70000B4
:1055E00000B583B016480078002822D100A800F04A
:1055F00021F8DDE90001134AC2E9000100A800F02A
:1056000019F8DDE90001104AC2E9000100A800F024
:1056100011F8DDE900010D4AC2E9000100A800F01F
:1056200009F8DDE900010A4AC2E900010120044944
:10563000087007BD0749D1E90023C0E9002370477E
:105640008C400020E83F0020F03F0020F83F002081
:1056500000400020046F00080278012313FA01F1D2
:105660001143017070470278012313FA01F132EA05
:105670000101017070470000002200F009B881B0FC
:105680008DF800008DF80110009801B070470000FF
:1056900000B500BF130096469446103928BFA0E815
:1056A0000C50FAD85FEA417C28BF0CC048BF40F8D4
:1056B000042BC90728BF20F8022B48BF00F8012B94
:1056C00000BD000080B5DFF828050068002816D16D
:1056D00000F0A6FAFFF70CF8FDF7DAFADFF8141578
:1056E0000860002300220021DFF808050068FDF7AC
:1056F000FAFA082000F004F8DFF8F414086001BD9D
:1057000038B50400E4B2A0003430FBF785FB050097
:10571000002D1CD004210820FDF782FAE862E86A17
:10572000002804D12800FBF7D6FC002010E0DFF8A9
:10573000C814E86AFDF794FC85F83240002085F82B
:105740003300002085F83000002085F83100280063
:1057500032BD80B5FBF7BFFC01BD0EB400B501A999
:105760002822FEF7E3FC5DF810FB8162704790F899
:10577000332090F832309A4208D290F83320531CEC
:1057800080F83330D2B210EB8200416370472DE9CC
:10579000F0410400002594F83000401C94F83310C8
:1057A00090FBF1F201FB1206012718E094F830009B
:1057B000FFB2381894F8331090FBF1F201FB120895
:1057C0005FFA88F814EB8800406BFFF76BF8010074
:1057D000280000F0C7FA01D20D0046467F1C94F85D
:1057E0003300FFB28742E1D33000C0B2BDE8F081A0
:1057F00010B5DFF808048068002805D0DFF8FC0346
:10580000DFF8F8138968884740F6B830FCF747F8A6
:1058100000240AE0E4B2DFF8D803006810EB84004B
:10582000406B001DFFF768FA641CDFF8C4030068D2
:1058300090F83300E4B28442ECD3DFF8C003806810
:10584000002805D0DFF8B403DFF8B0138968884773
:1058500041F28830FCF723F800235FF0FF3200218B
:10586000DFF890030068FDF7D4FADFF884030068DE
:1058700090F83100DFF87813096881F830000A24C5
:10588000DFF86C03006890F83000DFF864130968F3
:1058900011EB8000406B90F82700C0B2811F0E29E9
:1058A00000D204002100C9B2D148006890F830004D
:1058B000CF4A126812EB8000406BFEF7B7FFCC486E
:1058C0000068FFF764FFCA49096881F831002000C9
:1058D000C0B200F09DF8BFE730B583B001E000F042
:1058E000E1F800235FF0FF3201A9C1480068C06AF7
:1058F000FDF78FFA0422C2490198FFF72BFC00281C
:10590000EDD000F01DF95FF0FF34002522E0002308
:1059100000220021EDB2B648006810EB8500406B14
:105920000069FDF776FA012813D1EDB2B04800689E
:1059300010EB8500406BFEF741FF002300220021A1
:10594000EDB2AB48006810EB8500406B0069FDF7D5
:10595000CAF96D1CA648006890F83300EDB2854284
:105960002ED20199EDB2A248006810EB8500406B81
:10597000006800F009FA002800D12C009C4800685B
:1059800090F83000EDB28542C1D19E49019800F0F7
:10599000FBF90028BBD02800C0B2210049B200B2F8
:1059A00009B2884201D1012100E00021C9B2EDB263
:1059B0008F48006810EB8500406B00F0F9F8C8E7ED
:1059C00000208DF8010000208DF8000064B214F171
:1059D000010F16D08648006880F8304064B28448D1
:1059E000006810EB8400406BFEF707FF00AA0DF182
:1059F000010164B27E48006810EB8400406BFFF741
:105A000071F89DF800109DF8010000F034F868E787
:105A10001FB5040000A87C491022FEF787FB8DF813
:105A200006400DF103020DF102017148006890F883
:105A300030006F4B1B6813EB8000406BFFF752F890
:105A40000DF10A020DF109016948006890F8310072
:105A5000674B1B6813EB8000406BFFF743F8022392
:105A600000AA032162480068806A614C2468A46A25
:105A7000646BA0471FBD30B583B0644AD2E90045CE
:105A8000CDE900458DF802008DF80310012300AA2E
:105A9000032157480068806A554C2468A46A646BE7
:105AA000A04737BD10B500230022002158480068E8
:105AB000FDF7AFF901282AD1002408E0E4B24C48F0
:105AC000006810EB8400406BFEF778FE641C4848C9
:105AD000006890F83300E4B2844211D24448006870
